:020000040000FA
:100000000C9462000C948A000C948A000C948A0070
:100010000C948A000C948A000C948A000C948A0038
:100020000C948A000C948A000C948A000C948A0028
:100030000C948A000C94AA020C948A000C948A00F6
:100040000C9408020C948A000C9478020C945202CE
:100050000C948A000C948A000C948A000C948A00F8
:100060000C948A000C948A000000000025002800EF
:100070002B0000000000240027002A0000000000E0
:1000800023002600290004040404040404040202DA
:100090000202020203030303030301020408102007
:1000A0004080010204081020010204081020000012
:1000B0000008000201000003040700000000000027
:1000C0000000C30411241FBECFEFD8E0DEBFCDBFB8
:1000D00012E0A0E0B1E0E0EFF9E002C005900D927F
:1000E000AE31B107D9F722E0AEE1B2E001C01D9216
:1000F000A63CB207E1F710E0C2E6D0E004C02197C9
:10010000FE010E94F004C136D107C9F70E94110414
:100110000C94F6040C940000833081F028F48130B4
:1001200099F08230A9F008958730A9F08830C9F09D
:100130008430B1F4809180008F7D03C08091800075
:100140008F7780938000089584B58F7784BD08955C
:1001500084B58F7DFBCF8091B0008F778093B00006
:1001600008958091B0008F7DF9CFCF93DF93282F32
:1001700030E0F901E255FF4F8491F901E656FF4F57
:10018000D491F901EA57FF4FC491CC23A1F081111A
:100190000E948C00EC2FF0E0EE0FFF1FE458FF4FA1
:1001A000A591B491EC91ED2381E090E009F480E019
:1001B000DF91CF91089580E090E0FACFAF92BF92A7
:1001C000CF92DF92EF92FF920F931F93CF93DF9323
:1001D0006C017B018B01040F151FEB015E01AE1852
:1001E000BF08C017D10759F06991D601ED91FC9174
:1001F0000190F081E02DC6010995892B79F7C501A1
:10020000DF91CF911F910F91FF90EF90DF90CF90F2
:10021000BF90AF900895FC01538D448D252F30E0A1
:10022000842F90E0821B930B541710F0CF96089503
:1002300001970895FC01918D828D981761F0A28D30
:10024000AE0FBF2FB11D5D968C91928D9F5F9F73F6
:10025000928F90E008958FEF9FEF0895FC01918DAC
:10026000828D981731F0828DE80FF11D858D90E019
:1002700008958FEF9FEF0895FC01918D228D892FB6
:1002800090E0805C9F4F821B91098F73992708959E
:1002900089E292E00E943C0121E0892B09F420E0F0
:1002A000822F089580E090E0892B29F00E94480178
:1002B00081110C9400000895FC01A48DA80FB92FA2
:1002C000B11DA35ABF4F2C91848D90E001968F737E
:1002D0009927848FA689B7892C93A089B1898C919D
:1002E000837080648C93938D848D981306C00288EC
:1002F000F389E02D80818F7D80830895EF92FF92B6
:100300000F931F93CF93DF93EC0181E0888F9B8D38
:100310008C8D98131AC0E889F989808185FF15C0F2
:100320009FB7F894EE89FF896083E889F989808115
:100330008370806480839FBF81E090E0DF91CF91E4
:100340001F910F91FF90EF900895F62E0B8D10E006
:100350000F5F1F4F0F731127E02E8C8D8E110CC075
:100360000FB607FCFACFE889F989808185FFF5CFC0
:10037000CE010E945C01F1CFEB8DEC0FFD2FF11D42
:10038000E35AFF4FF0829FB7F8940B8FEA89FB89FD
:1003900080818062CFCFCF93DF93EC01888D88235B
:1003A000B9F0AA89BB89E889F9898C9185FD03C0D8
:1003B000808186FD0DC00FB607FCF7CF8C9185FFBD
:1003C000F2CF808185FFEDCFCE010E945C01E9CFA5
:1003D000DF91CF910895CF93DF93FC01019000202E
:1003E000E9F73197AF01481B590BBC0189E292E054
:1003F0000E94DE00EC0142E050E060E271E089E240
:1004000092E00E94DE008C0F9D1FDF91CF91089536
:100410001F920F920FB60F9211242F933F938F9339
:100420009F93AF93BF938091250290912602A09154
:100430002702B09128023091240223E0230F2D37A8
:1004400058F50196A11DB11D209324028093250229
:1004500090932602A0932702B09328028091200255
:1004600090912102A0912202B09123020196A11D38
:10047000B11D8093200290932102A0932202B09399
:100480002302BF91AF919F918F913F912F910F9038
:100490000FBE0F901F90189526E8230F0296A11DFE
:1004A000B11DD2CF1F920F920FB60F9211242F932E
:1004B0003F934F935F936F937F938F939F93AF93EC
:1004C000BF93EF93FF9389E292E00E945C01FF915A
:1004D000EF91BF91AF919F918F917F916F915F91BC
:1004E0004F913F912F910F900FBE0F901F90189535
:1004F0001F920F920FB60F9211242F938F939F93F9
:10050000EF93FF93E0913902F0913A028081E091FC
:100510003F02F091400282FD1BC090818091420217
:100520008F5F8F7320914302821741F0E091420266
:10053000F0E0E75DFD4F958F80934202FF91EF91D0
:100540009F918F912F910F900FBE0F901F90189534
:100550008081F4CF1F920F920FB60F9211240F9348
:100560001F932F933F934F935F936F937F938F933B
:100570009F93AF93BF93CF93DF93EF93FF9387E561
:100580009EE9909385008093840000911E02109153
:100590001F02EBEBF0E08491E7EAF0E0D491E3E9AD
:1005A000F0E0C491CC23A1F081110E948C00EC2FCB
:1005B000F0E0EE0FFF1FE859FF4FA591B4918FB700
:1005C000F894EC91011128C0D095DE23DC938FBF05
:1005D00020911E0230911F0281E090E0232B11F048
:1005E00090E080E090931F0280931E02E091020150
:1005F000F0910301EB30F105D8F4EF5FFC4F0C9460
:10060000F0040E032D034E035D037D038C03AC0346
:10061000BB03D503E4030404DE2BD8CF83E291E0CF
:100620000E94EB0181E090E090930301809302012E
:10063000FF91EF91DF91CF91BF91AF919F918F91FA
:100640007F916F915F914F913F912F911F910F91EA
:100650000F900FBE0F901F90189580910001909100
:100660000101892B51F48DE391E00E94EB0181E0BF
:1006700090E09093010180930001809104010E9419
:10068000B500892BA9F282E090E09093030180935A
:10069000020181E591E00E94EB01CACF87E591E07C
:1006A0000E94EB018091020190910301909301015E
:1006B0008093000183E090E0B7CF8091000190919A
:1006C0000101029751F488E791E00E94EB0183E079
:1006D00090E09093010180930001809106010E94B7
:1006E000B500892B09F4A4CF84E090E09093030136
:1006F0008093020185E991E0CECF8EE991E00E94DE
:10070000EB0180910201909103019093010180938C
:10071000000185E090E088CF809100019091010177
:10072000049751F485EB91E00E94EB0185E090E0A5
:100730009093010180930001809108010E94B5000F
:10074000892B09F475CF86E090E0909303018093A4
:10075000020184EC91E09FCF8EE991E00E94EB01D1
:100760008091020190910301909301018093000117
:1007700087E090E059CF80910001909101010697A8
:1007800051F485EB91E00E94EB0187E090E09093BB
:1007900001018093000180910A010E94B500892B1C
:1007A00009F446CF88E090E0D0CF8FEC91E00E9432
:1007B000EB018091020190910301909301018093DC
:1007C000000189E090E030CF80910001909101011B
:1007D000089751F487EE91E00E94EB0189E090E0E8
:1007E000909301018093000180910C010E94B5005B
:1007F000892B09F41DCF8AE090E090930301809348
:10080000020187EF91E047CF83E092E00E94EB0185
:100810001092010110920001109203011092020146
:1008200007CF789484B5826084BD84B5816084BD2F
:1008300085B5826085BD85B5816085BD80916E007E
:10084000816080936E0010928100809181008260AF
:1008500080938100809181008160809381008091EC
:1008600080008160809380008091B10084608093DB
:10087000B1008091B00081608093B00080917A00D7
:10088000846080937A0080917A00826080937A00FD
:1008900080917A00816080937A0080917A008068EC
:1008A00080937A001092C100109280001092810013
:1008B0008091810083608093810087E59EE9909319
:1008C00085008093840080916F00816080936F0029
:1008D000E7EAF0E02491E3E9F0E08491882399F0DD
:1008E00090E0880F991FFC01EE58FF4FA591B4913D
:1008F000FC01E859FF4F859194918FB7F894EC91E2
:10090000E22BEC938FBFE0913902F0913A0282E042
:100910008083E0913502F09136021082E091370237
:10092000F09138028FEC808310924102E0913D02F9
:10093000F0913E0286E08083E0913B02F0913C0220
:10094000808180618083E0913B02F0913C02808154
:1009500088608083E0913B02F0913C028081806856
:100960008083E0913B02F0913C0280818F7D808307
:10097000C0E0D0E02097F1F30E9448018823D1F332
:100980000E940000F7CFE9E2F2E01382128288EEC3
:1009900093E0A0E0B0E084839583A683B78382E1EF
:1009A00091E09183808385EC90E09587848784EC47
:1009B00090E09787868780EC90E0918B808B81EC2C
:1009C00090E0938B828B82EC90E0958B848B86EC0D
:1009D00090E0978B868B118E128E138E148E089555
:1009E000EE0FFF1F0590F491E02D0994F894FFCFCE
:1009F000000000000C000B000A00090008000000C5
:100A000000007E01DE000B01CB013C011A012E012A
:100A10000D0A0053656E64696E6720686F6D696EBC
:100A20006720636F6D6D616E642E2E2E00576169B5
:100A300074696E6720666F7220686F6D652E2E2E4A
:100A400000484F4D45440053656E64696E67206DE4
:100A50006F766520746F20737765657020636F6DA6
:100A60006D616E642E2E2E0057616974696E672069
:100A7000666F72206D6F766520746F207377656581
:100A8000702E2E2E00415420535745455000436F81
:100A90006D6D616E64696E6720727567206C696642
:100AA000742E2E2E004C696674696E67207275670D
:100AB0002E2E2E00525547204C49465445440043A3
:100AC0006F6D6D616E64696E6720727567206C6F03
:100AD0007765722E2E2E004C6F776572696E6720D7
:100AE0007275672E2E2E00525547204C4F57455297
:100AF0004544004C657473206769766520697420ED
:0E0B0000616E6F7468657220676F2E2E2E0076
:107E0000112484B714BE81FFF0D085E080938100F7
:107E100082E08093C00088E18093C10086E0809377
:107E2000C20080E18093C4008EE0C9D0259A86E02C
:107E300020E33CEF91E0309385002093840096BBD3
:107E4000B09BFECF1D9AA8958150A9F7CC24DD24C4
:107E500088248394B5E0AB2EA1E19A2EF3E0BF2EE7
:107E6000A2D0813461F49FD0082FAFD0023811F036
:107E7000013811F484E001C083E08DD089C08234E0
:107E800011F484E103C0853419F485E0A6D080C0E4
:107E9000853579F488D0E82EFF2485D0082F10E0AE
:107EA000102F00270E291F29000F111F8ED06801E7
:107EB0006FC0863521F484E090D080E0DECF843638
:107EC00009F040C070D06FD0082F6DD080E0C81688
:107ED00080E7D80618F4F601B7BEE895C0E0D1E017
:107EE00062D089930C17E1F7F0E0CF16F0E7DF06D8
:107EF00018F0F601B7BEE89568D007B600FCFDCFD4
:107F0000A601A0E0B1E02C9130E011968C91119780
:107F100090E0982F8827822B932B1296FA010C0160
:107F200087BEE89511244E5F5F4FF1E0A038BF0790
:107F300051F7F601A7BEE89507B600FCFDCF97BE46
:107F4000E89526C08437B1F42ED02DD0F82E2BD052
:107F50003CD0F601EF2C8F010F5F1F4F84911BD097
:107F6000EA94F801C1F70894C11CD11CFA94CF0C13
:107F7000D11C0EC0853739F428D08EE10CD085E9AC
:107F80000AD08FE07ACF813511F488E018D01DD067
:107F900080E101D065CF982F8091C00085FFFCCF94
:107FA0009093C60008958091C00087FFFCCF809118
:107FB000C00084FD01C0A8958091C6000895E0E648
:107FC000F0E098E1908380830895EDDF803219F02E
:107FD00088E0F5DFFFCF84E1DECF1F93182FE3DFCA
:107FE0001150E9F7F2DF1F91089580E0E8DFEE27F6
:047FF000FF270994CA
:027FFE00040479
:00000001FF
